{
  "_format": "hh-sol-artifact-1",
  "contractName": "Presale",
  "sourceName": "contracts/Presale.sol",
  "abi": [
    {
      "inputs": [
        {
          "internalType": "contract IERC20",
          "name": "_busd",
          "type": "address"
        },
        {
          "internalType": "contract IERC20",
          "name": "_baby",
          "type": "address"
        },
        {
          "internalType": "address",
          "name": "_masterWallet",
          "type": "address"
        }
      ],
      "stateMutability": "nonpayable",
      "type": "constructor"
    },
    {
      "anonymous": false,
      "inputs": [
        {
          "indexed": true,
          "internalType": "address",
          "name": "user",
          "type": "address"
        },
        {
          "indexed": false,
          "internalType": "uint256",
          "name": "amount",
          "type": "uint256"
        }
      ],
      "name": "Deposited",
      "type": "event"
    },
    {
      "anonymous": false,
      "inputs": [
        {
          "indexed": true,
          "internalType": "address",
          "name": "previousOwner",
          "type": "address"
        },
        {
          "indexed": true,
          "internalType": "address",
          "name": "newOwner",
          "type": "address"
        }
      ],
      "name": "OwnershipTransferred",
      "type": "event"
    },
    {
      "anonymous": false,
      "inputs": [
        {
          "indexed": false,
          "internalType": "bool",
          "name": "enabled",
          "type": "bool"
        }
      ],
      "name": "presaleEnabledUpdated",
      "type": "event"
    },
    {
      "inputs": [
        {
          "internalType": "uint256",
          "name": "_amount",
          "type": "uint256"
        }
      ],
      "name": "DepositBusd",
      "outputs": [],
      "stateMutability": "nonpayable",
      "type": "function"
    },
    {
      "inputs": [],
      "name": "baby",
      "outputs": [
        {
          "internalType": "contract IERC20",
          "name": "",
          "type": "address"
        }
      ],
      "stateMutability": "view",
      "type": "function"
    },
    {
      "inputs": [],
      "name": "busd",
      "outputs": [
        {
          "internalType": "contract IERC20",
          "name": "",
          "type": "address"
        }
      ],
      "stateMutability": "view",
      "type": "function"
    },
    {
      "inputs": [],
      "name": "currentPresaleAmount",
      "outputs": [
        {
          "internalType": "uint256",
          "name": "",
          "type": "uint256"
        }
      ],
      "stateMutability": "view",
      "type": "function"
    },
    {
      "inputs": [],
      "name": "depositRate",
      "outputs": [
        {
          "internalType": "uint256",
          "name": "",
          "type": "uint256"
        }
      ],
      "stateMutability": "view",
      "type": "function"
    },
    {
      "inputs": [],
      "name": "depositedUser",
      "outputs": [
        {
          "internalType": "uint256",
          "name": "",
          "type": "uint256"
        }
      ],
      "stateMutability": "view",
      "type": "function"
    },
    {
      "inputs": [
        {
          "internalType": "address",
          "name": "",
          "type": "address"
        }
      ],
      "name": "deposits",
      "outputs": [
        {
          "internalType": "uint256",
          "name": "",
          "type": "uint256"
        }
      ],
      "stateMutability": "view",
      "type": "function"
    },
    {
      "inputs": [],
      "name": "endTime",
      "outputs": [
        {
          "internalType": "uint256",
          "name": "",
          "type": "uint256"
        }
      ],
      "stateMutability": "view",
      "type": "function"
    },
    {
      "inputs": [
        {
          "internalType": "uint256",
          "name": "",
          "type": "uint256"
        }
      ],
      "name": "investors",
      "outputs": [
        {
          "internalType": "address",
          "name": "",
          "type": "address"
        }
      ],
      "stateMutability": "view",
      "type": "function"
    },
    {
      "inputs": [],
      "name": "masterWallet",
      "outputs": [
        {
          "internalType": "address",
          "name": "",
          "type": "address"
        }
      ],
      "stateMutability": "view",
      "type": "function"
    },
    {
      "inputs": [],
      "name": "owner",
      "outputs": [
        {
          "internalType": "address",
          "name": "",
          "type": "address"
        }
      ],
      "stateMutability": "view",
      "type": "function"
    },
    {
      "inputs": [],
      "name": "presaleEnabled",
      "outputs": [
        {
          "internalType": "bool",
          "name": "",
          "type": "bool"
        }
      ],
      "stateMutability": "view",
      "type": "function"
    },
    {
      "inputs": [],
      "name": "renounceOwnership",
      "outputs": [],
      "stateMutability": "nonpayable",
      "type": "function"
    },
    {
      "inputs": [
        {
          "internalType": "bool",
          "name": "_enabled",
          "type": "bool"
        }
      ],
      "name": "setPresaleEnabled",
      "outputs": [],
      "stateMutability": "nonpayable",
      "type": "function"
    },
    {
      "inputs": [],
      "name": "startTime",
      "outputs": [
        {
          "internalType": "uint256",
          "name": "",
          "type": "uint256"
        }
      ],
      "stateMutability": "view",
      "type": "function"
    },
    {
      "inputs": [],
      "name": "totalDepositedBusdBalance",
      "outputs": [
        {
          "internalType": "uint256",
          "name": "",
          "type": "uint256"
        }
      ],
      "stateMutability": "view",
      "type": "function"
    },
    {
      "inputs": [],
      "name": "totalPresalAmount",
      "outputs": [
        {
          "internalType": "uint256",
          "name": "",
          "type": "uint256"
        }
      ],
      "stateMutability": "view",
      "type": "function"
    },
    {
      "inputs": [
        {
          "internalType": "address",
          "name": "newOwner",
          "type": "address"
        }
      ],
      "name": "transferOwnership",
      "outputs": [],
      "stateMutability": "nonpayable",
      "type": "function"
    },
    {
      "inputs": [],
      "name": "updateDepositRate",
      "outputs": [],
      "stateMutability": "nonpayable",
      "type": "function"
    },
    {
      "inputs": [
        {
          "internalType": "address",
          "name": "_newWalletAddr",
          "type": "address"
        }
      ],
      "name": "updateMasterWalletAddress",
      "outputs": [],
      "stateMutability": "nonpayable",
      "type": "function"
    },
    {
      "inputs": [
        {
          "internalType": "uint256",
          "name": "rate",
          "type": "uint256"
        }
      ],
      "name": "updatePresaleRate",
      "outputs": [],
      "stateMutability": "nonpayable",
      "type": "function"
    },
    {
      "inputs": [
        {
          "internalType": "contract IERC20",
          "name": "_baby",
          "type": "address"
        }
      ],
      "name": "updatebabyToken",
      "outputs": [],
      "stateMutability": "nonpayable",
      "type": "function"
    }
  ],
  "bytecode": "0x608060405260c86008556a4986f44622f73835e000006009556000600a556001600d60006101000a81548160ff0219169083151502179055503480156200004557600080fd5b50604051620027ad380380620027ad83398181016040528101906200006b9190620003d7565b6200008b6200007f620002dd60201b60201c565b620002e560201b60201c565b60018081905550600073ffffffffffffffffffffffffffffffffffffffff168373ffffffffffffffffffffffffffffffffffffffff16141562000105576040517f08c379a0000000000000000000000000000000000000000000000000000000008152600401620000fc90620004a8565b60405180910390fd5b600073ffffffffffffffffffffffffffffffffffffffff168273ffffffffffffffffffffffffffffffffffffffff16141562000178576040517f08c379a00000000000000000000000000000000000000000000000000000000081526004016200016f90620004ca565b60405180910390fd5b600073ffffffffffffffffffffffffffffffffffffffff168173ffffffffffffffffffffffffffffffffffffffff161415620001eb576040517f08c379a0000000000000000000000000000000000000000000000000000000008152600401620001e290620004ec565b60405180910390fd5b82600260006101000a81548173ffffffffffffffffffffffffffffffffffffffff021916908373ffffffffffffffffffffffffffffffffffffffff16021790555081600360006101000a81548173ffffffffffffffffffffffffffffffffffffffff021916908373ffffffffffffffffffffffffffffffffffffffff16021790555080600660006101000a81548173ffffffffffffffffffffffffffffffffffffffff021916908373ffffffffffffffffffffffffffffffffffffffff160217905550600060078190555042600b819055506224ea0042620002ce91906200051f565b600c8190555050505062000723565b600033905090565b60008060009054906101000a900473ffffffffffffffffffffffffffffffffffffffff169050816000806101000a81548173ffffffffffffffffffffffffffffffffffffffff021916908373ffffffffffffffffffffffffffffffffffffffff1602179055508173ffffffffffffffffffffffffffffffffffffffff168173ffffffffffffffffffffffffffffffffffffffff167f8be0079c531659141344cd1fd0a4f28419497f9722a3daafe3b4186f6b6457e060405160405180910390a35050565b600081519050620003ba81620006ef565b92915050565b600081519050620003d18162000709565b92915050565b600080600060608486031215620003f357620003f2620005fd565b5b60006200040386828701620003c0565b93505060206200041686828701620003c0565b92505060406200042986828701620003a9565b9150509250925092565b6000620004426027836200050e565b91506200044f8262000602565b604082019050919050565b6000620004696027836200050e565b9150620004768262000651565b604082019050919050565b6000620004906030836200050e565b91506200049d82620006a0565b604082019050919050565b60006020820190508181036000830152620004c38162000433565b9050919050565b60006020820190508181036000830152620004e5816200045a565b9050919050565b60006020820190508181036000830152620005078162000481565b9050919050565b600082825260208201905092915050565b60006200052c82620005c4565b91506200053983620005c4565b9250827fffffffffffffffffffffffffffffffffffffffffffffffffffffffffffffffff03821115620005715762000570620005ce565b5b828201905092915050565b60006200058982620005a4565b9050919050565b60006200059d826200057c565b9050919050565b600073ffffffffffffffffffffffffffffffffffffffff82169050919050565b6000819050919050565b7f4e487b7100000000000000000000000000000000000000000000000000000000600052601160045260246000fd5b600080fd5b7f4255534420616464726573732073686f756c64206e6f74206265207a65726f2060008201527f6164647265737300000000000000000000000000000000000000000000000000602082015250565b7f4241425920616464726573732073686f756c64206e6f74206265207a65726f2060008201527f6164647265737300000000000000000000000000000000000000000000000000602082015250565b7f6d61737465722077616c6c657420616464726573732073686f756c64206e6f7460008201527f206265207a65726f206164647265737300000000000000000000000000000000602082015250565b620006fa816200057c565b81146200070657600080fd5b50565b620007148162000590565b81146200072057600080fd5b50565b61207a80620007336000396000f3fe608060405234801561001057600080fd5b50600436106101425760003560e01c80638da5cb5b116100b8578063ece8a1d91161007c578063ece8a1d91461031d578063ef87ceec1461033b578063f2fde38b14610345578063f5dd851414610361578063fc0d01171461037d578063fc7e286d1461039b57610142565b80638da5cb5b1461028b578063bdee733d146102a9578063c10225b8146102c7578063dad0b2a5146102e3578063e01ea7f7146102ff57610142565b80635b3c0da11161010a5780635b3c0da1146101ef578063715018a61461020d57806378e97925146102175780637e74a1ed146102355780638495292c1461025357806385aeaf111461026f57610142565b8063143b237f146101475780633197cbb6146101655780633ca5b234146101835780633feb5f2b146101a157806348d6df75146101d1575b600080fd5b61014f6103cb565b60405161015c9190611812565b60405180910390f35b61016d6103de565b60405161017a9190611a0a565b60405180910390f35b61018b6103e4565b604051610198919061182d565b60405180910390f35b6101bb60048036038101906101b691906114e2565b61040a565b6040516101c891906117c0565b60405180910390f35b6101d9610449565b6040516101e69190611a0a565b60405180910390f35b6101f761044f565b6040516102049190611a0a565b60405180910390f35b61021561045c565b005b61021f6104e4565b60405161022c9190611a0a565b60405180910390f35b61023d6104ea565b60405161024a9190611a0a565b60405180910390f35b61026d600480360381019061026891906114e2565b6104f0565b005b610289600480360381019061028491906114e2565b6105b9565b005b610293610ab6565b6040516102a091906117c0565b60405180910390f35b6102b1610adf565b6040516102be9190611a0a565b60405180910390f35b6102e160048036038101906102dc919061145b565b610ae5565b005b6102fd60048036038101906102f891906114b5565b610bb5565b005b610307610ce5565b6040516103149190611a0a565b60405180910390f35b610325610ceb565b604051610332919061182d565b60405180910390f35b610343610d11565b005b61035f600480360381019061035a919061142e565b610d5c565b005b61037b6004803603810190610376919061142e565b610e54565b005b610385610f84565b60405161039291906117c0565b60405180910390f35b6103b560048036038101906103b0919061142e565b610faa565b6040516103c29190611a0a565b60405180910390f35b600d60009054906101000a900460ff1681565b600c5481565b600260009054906101000a900473ffffffffffffffffffffffffffffffffffffffff1681565b6005818154811061041a57600080fd5b906000526020600020016000915054906101000a900473ffffffffffffffffffffffffffffffffffffffff1681565b60075481565b6000600580549050905090565b610464610fc2565b73ffffffffffffffffffffffffffffffffffffffff16610482610ab6565b73ffffffffffffffffffffffffffffffffffffffff16146104d8576040517f08c379a00000000000000000000000000000000000000000000000000000000081526004016104cf9061192a565b60405180910390fd5b6104e26000610fca565b565b600b5481565b60085481565b6104f8610fc2565b73ffffffffffffffffffffffffffffffffffffffff16610516610ab6565b73ffffffffffffffffffffffffffffffffffffffff161461056c576040517f08c379a00000000000000000000000000000000000000000000000000000000081526004016105639061192a565b60405180910390fd5b600081116105af576040517f08c379a00000000000000000000000000000000000000000000000000000000081526004016105a6906118ca565b60405180910390fd5b8060088190555050565b600260015414156105ff576040517f08c379a00000000000000000000000000000000000000000000000000000000081526004016105f6906119aa565b60405180910390fd5b60026001819055506000811161064a576040517f08c379a0000000000000000000000000000000000000000000000000000000008152600401610641906119ea565b60405180910390fd5b60011515600d60009054906101000a900460ff161515146106a0576040517f08c379a00000000000000000000000000000000000000000000000000000000081526004016106979061190a565b60405180910390fd5b600b54421180156106b25750600c5442105b6106f1576040517f08c379a00000000000000000000000000000000000000000000000000000000081526004016106e89061186a565b60405180910390fd5b60006107086008548361108e90919063ffffffff16565b905069d3c21bcecceda100000081600360009054906101000a900473ffffffffffffffffffffffffffffffffffffffff1673ffffffffffffffffffffffffffffffffffffffff166370a08231336040518263ffffffff1660e01b815260040161077191906117c0565b60206040518083038186803b15801561078957600080fd5b505afa15801561079d573d6000803e3d6000fd5b505050506040513d601f19601f820116820180604052508101906107c1919061150f565b6107cb9190611a57565b111561080c576040517f08c379a00000000000000000000000000000000000000000000000000000000081526004016108039061196a565b60405180910390fd5b61087d33600660009054906101000a900473ffffffffffffffffffffffffffffffffffffffff1684600260009054906101000a900473ffffffffffffffffffffffffffffffffffffffff1673ffffffffffffffffffffffffffffffffffffffff166110a4909392919063ffffffff16565b6108ee600660009054906101000a900473ffffffffffffffffffffffffffffffffffffffff163383600360009054906101000a900473ffffffffffffffffffffffffffffffffffffffff1673ffffffffffffffffffffffffffffffffffffffff166110a4909392919063ffffffff16565b816007546108fc9190611a57565b60078190555080600a60008282546109149190611a57565b92505081905550610923610d11565b6000600460003373ffffffffffffffffffffffffffffffffffffffff1673ffffffffffffffffffffffffffffffffffffffff1681526020019081526020016000205414156109cf576005339080600181540180825580915050600190039060005260206000200160009091909190916101000a81548173ffffffffffffffffffffffffffffffffffffffff021916908373ffffffffffffffffffffffffffffffffffffffff1602179055505b81600460003373ffffffffffffffffffffffffffffffffffffffff1673ffffffffffffffffffffffffffffffffffffffff16815260200190815260200160002054610a1a9190611a57565b600460003373ffffffffffffffffffffffffffffffffffffffff1673ffffffffffffffffffffffffffffffffffffffff168152602001908152602001600020819055503373ffffffffffffffffffffffffffffffffffffffff167f2da466a7b24304f47e87fa2e1e5a81b9831ce54fec19055ce277ca2f39ba42c483604051610aa39190611a0a565b60405180910390a2506001808190555050565b60008060009054906101000a900473ffffffffffffffffffffffffffffffffffffffff16905090565b600a5481565b610aed610fc2565b73ffffffffffffffffffffffffffffffffffffffff16610b0b610ab6565b73ffffffffffffffffffffffffffffffffffffffff1614610b61576040517f08c379a0000000000000000000000000000000000000000000000000000000008152600401610b589061192a565b60405180910390fd5b80600d60006101000a81548160ff0219169083151502179055507fee71fa05d7c4c1721a7eaedc63fef4eb7f26125d67e3c35a903f92ee346cc20281604051610baa9190611812565b60405180910390a150565b610bbd610fc2565b73ffffffffffffffffffffffffffffffffffffffff16610bdb610ab6565b73ffffffffffffffffffffffffffffffffffffffff1614610c31576040517f08c379a0000000000000000000000000000000000000000000000000000000008152600401610c289061192a565b60405180910390fd5b600073ffffffffffffffffffffffffffffffffffffffff168173ffffffffffffffffffffffffffffffffffffffff161415610ca1576040517f08c379a0000000000000000000000000000000000000000000000000000000008152600401610c98906119ca565b60405180910390fd5b80600360006101000a81548173ffffffffffffffffffffffffffffffffffffffff021916908373ffffffffffffffffffffffffffffffffffffffff16021790555050565b60095481565b600360009054906101000a900473ffffffffffffffffffffffffffffffffffffffff1681565b610d48600954610d3a6064600a54600954610d2c9190611b38565b61108e90919063ffffffff16565b61112d90919063ffffffff16565b6064610d549190611a57565b600881905550565b610d64610fc2565b73ffffffffffffffffffffffffffffffffffffffff16610d82610ab6565b73ffffffffffffffffffffffffffffffffffffffff1614610dd8576040517f08c379a0000000000000000000000000000000000000000000000000000000008152600401610dcf9061192a565b60405180910390fd5b600073ffffffffffffffffffffffffffffffffffffffff168173ffffffffffffffffffffffffffffffffffffffff161415610e48576040517f08c379a0000000000000000000000000000000000000000000000000000000008152600401610e3f906118aa565b60405180910390fd5b610e5181610fca565b50565b610e5c610fc2565b73ffffffffffffffffffffffffffffffffffffffff16610e7a610ab6565b73ffffffffffffffffffffffffffffffffffffffff1614610ed0576040517f08c379a0000000000000000000000000000000000000000000000000000000008152600401610ec79061192a565b60405180910390fd5b600073ffffffffffffffffffffffffffffffffffffffff168173ffffffffffffffffffffffffffffffffffffffff161415610f40576040517f08c379a0000000000000000000000000000000000000000000000000000000008152600401610f379061188a565b60405180910390fd5b80600660006101000a81548173ffffffffffffffffffffffffffffffffffffffff021916908373ffffffffffffffffffffffffffffffffffffffff16021790555050565b600660009054906101000a900473ffffffffffffffffffffffffffffffffffffffff1681565b60046020528060005260406000206000915090505481565b600033905090565b60008060009054906101000a900473ffffffffffffffffffffffffffffffffffffffff169050816000806101000a81548173ffffffffffffffffffffffffffffffffffffffff021916908373ffffffffffffffffffffffffffffffffffffffff1602179055508173ffffffffffffffffffffffffffffffffffffffff168173ffffffffffffffffffffffffffffffffffffffff167f8be0079c531659141344cd1fd0a4f28419497f9722a3daafe3b4186f6b6457e060405160405180910390a35050565b6000818361109c9190611ade565b905092915050565b611127846323b872dd60e01b8585856040516024016110c5939291906117db565b604051602081830303815290604052907bffffffffffffffffffffffffffffffffffffffffffffffffffffffff19166020820180517bffffffffffffffffffffffffffffffffffffffffffffffffffffffff8381831617835250505050611143565b50505050565b6000818361113b9190611aad565b905092915050565b60006111a5826040518060400160405280602081526020017f5361666545524332303a206c6f772d6c6576656c2063616c6c206661696c65648152508573ffffffffffffffffffffffffffffffffffffffff1661120a9092919063ffffffff16565b905060008151111561120557808060200190518101906111c59190611488565b611204576040517f08c379a00000000000000000000000000000000000000000000000000000000081526004016111fb9061198a565b60405180910390fd5b5b505050565b60606112198484600085611222565b90509392505050565b606082471015611267576040517f08c379a000000000000000000000000000000000000000000000000000000000815260040161125e906118ea565b60405180910390fd5b61127085611336565b6112af576040517f08c379a00000000000000000000000000000000000000000000000000000000081526004016112a69061194a565b60405180910390fd5b6000808673ffffffffffffffffffffffffffffffffffffffff1685876040516112d891906117a9565b60006040518083038185875af1925050503d8060008114611315576040519150601f19603f3d011682016040523d82523d6000602084013e61131a565b606091505b509150915061132a828286611349565b92505050949350505050565b600080823b905060008111915050919050565b60608315611359578290506113a9565b60008351111561136c5782518084602001fd5b816040517f08c379a00000000000000000000000000000000000000000000000000000000081526004016113a09190611848565b60405180910390fd5b9392505050565b6000813590506113bf81611fe8565b92915050565b6000813590506113d481611fff565b92915050565b6000815190506113e981611fff565b92915050565b6000813590506113fe81612016565b92915050565b6000813590506114138161202d565b92915050565b6000815190506114288161202d565b92915050565b60006020828403121561144457611443611c8d565b5b6000611452848285016113b0565b91505092915050565b60006020828403121561147157611470611c8d565b5b600061147f848285016113c5565b91505092915050565b60006020828403121561149e5761149d611c8d565b5b60006114ac848285016113da565b91505092915050565b6000602082840312156114cb576114ca611c8d565b5b60006114d9848285016113ef565b91505092915050565b6000602082840312156114f8576114f7611c8d565b5b600061150684828501611404565b91505092915050565b60006020828403121561152557611524611c8d565b5b600061153384828501611419565b91505092915050565b61154581611b6c565b82525050565b61155481611b7e565b82525050565b600061156582611a25565b61156f8185611a3b565b935061157f818560208601611bfc565b80840191505092915050565b61159481611bc6565b82525050565b60006115a582611a30565b6115af8185611a46565b93506115bf818560208601611bfc565b6115c881611c92565b840191505092915050565b60006115e0601d83611a46565b91506115eb82611ca3565b602082019050919050565b6000611603602983611a46565b915061160e82611ccc565b604082019050919050565b6000611626602683611a46565b915061163182611d1b565b604082019050919050565b6000611649602683611a46565b915061165482611d6a565b604082019050919050565b600061166c602683611a46565b915061167782611db9565b604082019050919050565b600061168f602183611a46565b915061169a82611e08565b604082019050919050565b60006116b2602083611a46565b91506116bd82611e57565b602082019050919050565b60006116d5601d83611a46565b91506116e082611e80565b602082019050919050565b60006116f8603083611a46565b915061170382611ea9565b604082019050919050565b600061171b602a83611a46565b915061172682611ef8565b604082019050919050565b600061173e601f83611a46565b915061174982611f47565b602082019050919050565b6000611761602e83611a46565b915061176c82611f70565b604082019050919050565b6000611784601d83611a46565b915061178f82611fbf565b602082019050919050565b6117a381611bbc565b82525050565b60006117b5828461155a565b915081905092915050565b60006020820190506117d5600083018461153c565b92915050565b60006060820190506117f0600083018661153c565b6117fd602083018561153c565b61180a604083018461179a565b949350505050565b6000602082019050611827600083018461154b565b92915050565b6000602082019050611842600083018461158b565b92915050565b60006020820190508181036000830152611862818461159a565b905092915050565b60006020820190508181036000830152611883816115d3565b9050919050565b600060208201905081810360008301526118a3816115f6565b9050919050565b600060208201905081810360008301526118c381611619565b9050919050565b600060208201905081810360008301526118e38161163c565b9050919050565b600060208201905081810360008301526119038161165f565b9050919050565b6000602082019050818103600083015261192381611682565b9050919050565b60006020820190508181036000830152611943816116a5565b9050919050565b60006020820190508181036000830152611963816116c8565b9050919050565b60006020820190508181036000830152611983816116eb565b9050919050565b600060208201905081810360008301526119a38161170e565b9050919050565b600060208201905081810360008301526119c381611731565b9050919050565b600060208201905081810360008301526119e381611754565b9050919050565b60006020820190508181036000830152611a0381611777565b9050919050565b6000602082019050611a1f600083018461179a565b92915050565b600081519050919050565b600081519050919050565b600081905092915050565b600082825260208201905092915050565b6000611a6282611bbc565b9150611a6d83611bbc565b9250827fffffffffffffffffffffffffffffffffffffffffffffffffffffffffffffffff03821115611aa257611aa1611c2f565b5b828201905092915050565b6000611ab882611bbc565b9150611ac383611bbc565b925082611ad357611ad2611c5e565b5b828204905092915050565b6000611ae982611bbc565b9150611af483611bbc565b9250817fffffffffffffffffffffffffffffffffffffffffffffffffffffffffffffffff0483118215151615611b2d57611b2c611c2f565b5b828202905092915050565b6000611b4382611bbc565b9150611b4e83611bbc565b925082821015611b6157611b60611c2f565b5b828203905092915050565b6000611b7782611b9c565b9050919050565b60008115159050919050565b6000611b9582611b6c565b9050919050565b600073ffffffffffffffffffffffffffffffffffffffff82169050919050565b6000819050919050565b6000611bd182611bd8565b9050919050565b6000611be382611bea565b9050919050565b6000611bf582611b9c565b9050919050565b60005b83811015611c1a578082015181840152602081019050611bff565b83811115611c29576000848401525b50505050565b7f4e487b7100000000000000000000000000000000000000000000000000000000600052601160045260246000fd5b7f4e487b7100000000000000000000000000000000000000000000000000000000600052601260045260246000fd5b600080fd5b6000601f19601f8301169050919050565b7f50726573616c6520706572696f6420616c726561647920706173736564000000600082015250565b7f57616c6c657420616464726573732073686f756c64206e6f74206265207a657260008201527f6f20616464726573730000000000000000000000000000000000000000000000602082015250565b7f4f776e61626c653a206e6577206f776e657220697320746865207a65726f206160008201527f6464726573730000000000000000000000000000000000000000000000000000602082015250565b7f55706461746553776170526174653a2052617465206973206c6573732074686160008201527f6e205a65726f0000000000000000000000000000000000000000000000000000602082015250565b7f416464726573733a20696e73756666696369656e742062616c616e636520666f60008201527f722063616c6c0000000000000000000000000000000000000000000000000000602082015250565b7f50726573616c653a2050726573616c65206973206e6f7420617661696c61626c60008201527f6500000000000000000000000000000000000000000000000000000000000000602082015250565b7f4f776e61626c653a2063616c6c6572206973206e6f7420746865206f776e6572600082015250565b7f416464726573733a2063616c6c20746f206e6f6e2d636f6e7472616374000000600082015250565b7f43616e6e6f7420686f6c64206d6f7265207468616e203130303030202462616260008201527f7920696e20796f75722077616c6c657400000000000000000000000000000000602082015250565b7f5361666545524332303a204552433230206f7065726174696f6e20646964206e60008201527f6f74207375636365656400000000000000000000000000000000000000000000602082015250565b7f5265656e7472616e637947756172643a207265656e7472616e742063616c6c00600082015250565b7f4f6c64566764546f6b656e20616464726573732073686f756c64206e6f74206260008201527f65207a65726f2061646472657373000000000000000000000000000000000000602082015250565b7f4255534420416d6f756e74206973206c657373207468616e207a65726f000000600082015250565b611ff181611b6c565b8114611ffc57600080fd5b50565b61200881611b7e565b811461201357600080fd5b50565b61201f81611b8a565b811461202a57600080fd5b50565b61203681611bbc565b811461204157600080fd5b5056fea2646970667358221220854a19a8ffd396baa2fcd9d11398ddfd39b66dfa843cbf96dcd3364b22fbb4e464736f6c63430008070033",
  "linkReferences": {},
  "deployedLinkReferences": {}
}