{
  "_format": "hh-sol-artifact-1",
  "contractName": "Presale",
  "sourceName": "contracts/Presale.sol",
  "abi": [
    {
      "inputs": [
        {
          "internalType": "contract IERC20",
          "name": "_busd",
          "type": "address"
        },
        {
          "internalType": "contract IERC20",
          "name": "_baby",
          "type": "address"
        },
        {
          "internalType": "address",
          "name": "_masterWallet",
          "type": "address"
        }
      ],
      "stateMutability": "nonpayable",
      "type": "constructor"
    },
    {
      "anonymous": false,
      "inputs": [
        {
          "indexed": true,
          "internalType": "address",
          "name": "user",
          "type": "address"
        },
        {
          "indexed": false,
          "internalType": "uint256",
          "name": "amount",
          "type": "uint256"
        }
      ],
      "name": "Deposited",
      "type": "event"
    },
    {
      "anonymous": false,
      "inputs": [
        {
          "indexed": true,
          "internalType": "address",
          "name": "previousOwner",
          "type": "address"
        },
        {
          "indexed": true,
          "internalType": "address",
          "name": "newOwner",
          "type": "address"
        }
      ],
      "name": "OwnershipTransferred",
      "type": "event"
    },
    {
      "anonymous": false,
      "inputs": [
        {
          "indexed": false,
          "internalType": "bool",
          "name": "enabled",
          "type": "bool"
        }
      ],
      "name": "presaleEnabledUpdated",
      "type": "event"
    },
    {
      "inputs": [
        {
          "internalType": "uint256",
          "name": "_amount",
          "type": "uint256"
        }
      ],
      "name": "DepositBusd",
      "outputs": [],
      "stateMutability": "nonpayable",
      "type": "function"
    },
    {
      "inputs": [],
      "name": "baby",
      "outputs": [
        {
          "internalType": "contract IERC20",
          "name": "",
          "type": "address"
        }
      ],
      "stateMutability": "view",
      "type": "function"
    },
    {
      "inputs": [],
      "name": "busd",
      "outputs": [
        {
          "internalType": "contract IERC20",
          "name": "",
          "type": "address"
        }
      ],
      "stateMutability": "view",
      "type": "function"
    },
    {
      "inputs": [],
      "name": "depositRate",
      "outputs": [
        {
          "internalType": "uint256",
          "name": "",
          "type": "uint256"
        }
      ],
      "stateMutability": "view",
      "type": "function"
    },
    {
      "inputs": [],
      "name": "depositedUser",
      "outputs": [
        {
          "internalType": "uint256",
          "name": "",
          "type": "uint256"
        }
      ],
      "stateMutability": "view",
      "type": "function"
    },
    {
      "inputs": [
        {
          "internalType": "address",
          "name": "",
          "type": "address"
        }
      ],
      "name": "deposits",
      "outputs": [
        {
          "internalType": "uint256",
          "name": "",
          "type": "uint256"
        }
      ],
      "stateMutability": "view",
      "type": "function"
    },
    {
      "inputs": [
        {
          "internalType": "uint256",
          "name": "",
          "type": "uint256"
        }
      ],
      "name": "investors",
      "outputs": [
        {
          "internalType": "address",
          "name": "",
          "type": "address"
        }
      ],
      "stateMutability": "view",
      "type": "function"
    },
    {
      "inputs": [],
      "name": "masterWallet",
      "outputs": [
        {
          "internalType": "address",
          "name": "",
          "type": "address"
        }
      ],
      "stateMutability": "view",
      "type": "function"
    },
    {
      "inputs": [],
      "name": "owner",
      "outputs": [
        {
          "internalType": "address",
          "name": "",
          "type": "address"
        }
      ],
      "stateMutability": "view",
      "type": "function"
    },
    {
      "inputs": [],
      "name": "renounceOwnership",
      "outputs": [],
      "stateMutability": "nonpayable",
      "type": "function"
    },
    {
      "inputs": [
        {
          "internalType": "bool",
          "name": "_enabled",
          "type": "bool"
        }
      ],
      "name": "setPresaleEnabled",
      "outputs": [],
      "stateMutability": "nonpayable",
      "type": "function"
    },
    {
      "inputs": [],
      "name": "totalDepositedBusdBalance",
      "outputs": [
        {
          "internalType": "uint256",
          "name": "",
          "type": "uint256"
        }
      ],
      "stateMutability": "view",
      "type": "function"
    },
    {
      "inputs": [
        {
          "internalType": "address",
          "name": "newOwner",
          "type": "address"
        }
      ],
      "name": "transferOwnership",
      "outputs": [],
      "stateMutability": "nonpayable",
      "type": "function"
    },
    {
      "inputs": [
        {
          "internalType": "address",
          "name": "_newWalletAddr",
          "type": "address"
        }
      ],
      "name": "updateMasterWalletAddress",
      "outputs": [],
      "stateMutability": "nonpayable",
      "type": "function"
    },
    {
      "inputs": [
        {
          "internalType": "uint256",
          "name": "rate",
          "type": "uint256"
        }
      ],
      "name": "updatePresaleRate",
      "outputs": [],
      "stateMutability": "nonpayable",
      "type": "function"
    },
    {
      "inputs": [
        {
          "internalType": "contract IERC20",
          "name": "_baby",
          "type": "address"
        }
      ],
      "name": "updatebabyToken",
      "outputs": [],
      "stateMutability": "nonpayable",
      "type": "function"
    }
  ],
  "bytecode": "0x608060405260646008556000600960006101000a81548160ff0219169083151502179055503480156200003157600080fd5b50604051620022273803806200222783398181016040528101906200005791906200039d565b620000776200006b620002a360201b60201c565b620002ab60201b60201c565b60018081905550600073ffffffffffffffffffffffffffffffffffffffff168373ffffffffffffffffffffffffffffffffffffffff161415620000f1576040517f08c379a0000000000000000000000000000000000000000000000000000000008152600401620000e8906200046e565b60405180910390fd5b600073ffffffffffffffffffffffffffffffffffffffff168273ffffffffffffffffffffffffffffffffffffffff16141562000164576040517f08c379a00000000000000000000000000000000000000000000000000000000081526004016200015b9062000490565b60405180910390fd5b600073ffffffffffffffffffffffffffffffffffffffff168173ffffffffffffffffffffffffffffffffffffffff161415620001d7576040517f08c379a0000000000000000000000000000000000000000000000000000000008152600401620001ce90620004b2565b60405180910390fd5b82600260006101000a81548173ffffffffffffffffffffffffffffffffffffffff021916908373ffffffffffffffffffffffffffffffffffffffff16021790555081600360006101000a81548173ffffffffffffffffffffffffffffffffffffffff021916908373ffffffffffffffffffffffffffffffffffffffff16021790555080600660006101000a81548173ffffffffffffffffffffffffffffffffffffffff021916908373ffffffffffffffffffffffffffffffffffffffff16021790555050505062000653565b600033905090565b60008060009054906101000a900473ffffffffffffffffffffffffffffffffffffffff169050816000806101000a81548173ffffffffffffffffffffffffffffffffffffffff021916908373ffffffffffffffffffffffffffffffffffffffff1602179055508173ffffffffffffffffffffffffffffffffffffffff168173ffffffffffffffffffffffffffffffffffffffff167f8be0079c531659141344cd1fd0a4f28419497f9722a3daafe3b4186f6b6457e060405160405180910390a35050565b60008151905062000380816200061f565b92915050565b600081519050620003978162000639565b92915050565b600080600060608486031215620003b957620003b86200052d565b5b6000620003c98682870162000386565b9350506020620003dc8682870162000386565b9250506040620003ef868287016200036f565b9150509250925092565b600062000408602783620004d4565b9150620004158262000532565b604082019050919050565b60006200042f602783620004d4565b91506200043c8262000581565b604082019050919050565b600062000456603083620004d4565b91506200046382620005d0565b604082019050919050565b600060208201905081810360008301526200048981620003f9565b9050919050565b60006020820190508181036000830152620004ab8162000420565b9050919050565b60006020820190508181036000830152620004cd8162000447565b9050919050565b600082825260208201905092915050565b6000620004f2826200050d565b9050919050565b60006200050682620004e5565b9050919050565b600073ffffffffffffffffffffffffffffffffffffffff82169050919050565b600080fd5b7f4255534420616464726573732073686f756c64206e6f74206265207a65726f2060008201527f6164647265737300000000000000000000000000000000000000000000000000602082015250565b7f4241425920616464726573732073686f756c64206e6f74206265207a65726f2060008201527f6164647265737300000000000000000000000000000000000000000000000000602082015250565b7f6d61737465722077616c6c657420616464726573732073686f756c64206e6f7460008201527f206265207a65726f206164647265737300000000000000000000000000000000602082015250565b6200062a81620004e5565b81146200063657600080fd5b50565b6200064481620004f9565b81146200065057600080fd5b50565b611bc480620006636000396000f3fe608060405234801561001057600080fd5b50600436106101005760003560e01c80638da5cb5b11610097578063f2fde38b11610066578063f2fde38b14610263578063f5dd85141461027f578063fc0d01171461029b578063fc7e286d146102b957610100565b80638da5cb5b146101ef578063c10225b81461020d578063dad0b2a514610229578063ece8a1d91461024557610100565b8063715018a6116100d3578063715018a61461018f5780637e74a1ed146101995780638495292c146101b757806385aeaf11146101d357610100565b80633ca5b234146101055780633feb5f2b1461012357806348d6df75146101535780635b3c0da114610171575b600080fd5b61010d6102e9565b60405161011a91906114c3565b60405180910390f35b61013d600480360381019061013891906111eb565b61030f565b60405161014a9190611456565b60405180910390f35b61015b61034e565b6040516101689190611660565b60405180910390f35b610179610354565b6040516101869190611660565b60405180910390f35b610197610361565b005b6101a16103e9565b6040516101ae9190611660565b60405180910390f35b6101d160048036038101906101cc91906111eb565b6103ef565b005b6101ed60048036038101906101e891906111eb565b6104b8565b005b6101f7610841565b6040516102049190611456565b60405180910390f35b61022760048036038101906102229190611164565b61086a565b005b610243600480360381019061023e91906111be565b61093a565b005b61024d610a6a565b60405161025a91906114c3565b60405180910390f35b61027d60048036038101906102789190611137565b610a90565b005b61029960048036038101906102949190611137565b610b88565b005b6102a3610cb8565b6040516102b09190611456565b60405180910390f35b6102d360048036038101906102ce9190611137565b610cde565b6040516102e09190611660565b60405180910390f35b600260009054906101000a900473ffffffffffffffffffffffffffffffffffffffff1681565b6005818154811061031f57600080fd5b906000526020600020016000915054906101000a900473ffffffffffffffffffffffffffffffffffffffff1681565b60075481565b6000600580549050905090565b610369610cf6565b73ffffffffffffffffffffffffffffffffffffffff16610387610841565b73ffffffffffffffffffffffffffffffffffffffff16146103dd576040517f08c379a00000000000000000000000000000000000000000000000000000000081526004016103d4906115a0565b60405180910390fd5b6103e76000610cfe565b565b60085481565b6103f7610cf6565b73ffffffffffffffffffffffffffffffffffffffff16610415610841565b73ffffffffffffffffffffffffffffffffffffffff161461046b576040517f08c379a0000000000000000000000000000000000000000000000000000000008152600401610462906115a0565b60405180910390fd5b600081116104ae576040517f08c379a00000000000000000000000000000000000000000000000000000000081526004016104a590611540565b60405180910390fd5b8060088190555050565b600260015414156104fe576040517f08c379a00000000000000000000000000000000000000000000000000000000081526004016104f590611600565b60405180910390fd5b600260018190555060008111610549576040517f08c379a000000000000000000000000000000000000000000000000000000000815260040161054090611640565b60405180910390fd5b60011515600960009054906101000a900460ff1615151461059f576040517f08c379a000000000000000000000000000000000000000000000000000000000815260040161059690611580565b60405180910390fd5b60006105b660085483610dc290919063ffffffff16565b905061062933600660009054906101000a900473ffffffffffffffffffffffffffffffffffffffff1684600260009054906101000a900473ffffffffffffffffffffffffffffffffffffffff1673ffffffffffffffffffffffffffffffffffffffff16610dd8909392919063ffffffff16565b61069a600660009054906101000a900473ffffffffffffffffffffffffffffffffffffffff163383600360009054906101000a900473ffffffffffffffffffffffffffffffffffffffff1673ffffffffffffffffffffffffffffffffffffffff16610dd8909392919063ffffffff16565b816007546106a891906116ad565b6007819055506000600460003373ffffffffffffffffffffffffffffffffffffffff1673ffffffffffffffffffffffffffffffffffffffff16815260200190815260200160002054141561075a576005339080600181540180825580915050600190039060005260206000200160009091909190916101000a81548173ffffffffffffffffffffffffffffffffffffffff021916908373ffffffffffffffffffffffffffffffffffffffff1602179055505b81600460003373ffffffffffffffffffffffffffffffffffffffff1673ffffffffffffffffffffffffffffffffffffffff168152602001908152602001600020546107a591906116ad565b600460003373ffffffffffffffffffffffffffffffffffffffff1673ffffffffffffffffffffffffffffffffffffffff168152602001908152602001600020819055503373ffffffffffffffffffffffffffffffffffffffff167f2da466a7b24304f47e87fa2e1e5a81b9831ce54fec19055ce277ca2f39ba42c48360405161082e9190611660565b60405180910390a2506001808190555050565b60008060009054906101000a900473ffffffffffffffffffffffffffffffffffffffff16905090565b610872610cf6565b73ffffffffffffffffffffffffffffffffffffffff16610890610841565b73ffffffffffffffffffffffffffffffffffffffff16146108e6576040517f08c379a00000000000000000000000000000000000000000000000000000000081526004016108dd906115a0565b60405180910390fd5b80600960006101000a81548160ff0219169083151502179055507fee71fa05d7c4c1721a7eaedc63fef4eb7f26125d67e3c35a903f92ee346cc2028160405161092f91906114a8565b60405180910390a150565b610942610cf6565b73ffffffffffffffffffffffffffffffffffffffff16610960610841565b73ffffffffffffffffffffffffffffffffffffffff16146109b6576040517f08c379a00000000000000000000000000000000000000000000000000000000081526004016109ad906115a0565b60405180910390fd5b600073ffffffffffffffffffffffffffffffffffffffff168173ffffffffffffffffffffffffffffffffffffffff161415610a26576040517f08c379a0000000000000000000000000000000000000000000000000000000008152600401610a1d90611620565b60405180910390fd5b80600360006101000a81548173ffffffffffffffffffffffffffffffffffffffff021916908373ffffffffffffffffffffffffffffffffffffffff16021790555050565b600360009054906101000a900473ffffffffffffffffffffffffffffffffffffffff1681565b610a98610cf6565b73ffffffffffffffffffffffffffffffffffffffff16610ab6610841565b73ffffffffffffffffffffffffffffffffffffffff1614610b0c576040517f08c379a0000000000000000000000000000000000000000000000000000000008152600401610b03906115a0565b60405180910390fd5b600073ffffffffffffffffffffffffffffffffffffffff168173ffffffffffffffffffffffffffffffffffffffff161415610b7c576040517f08c379a0000000000000000000000000000000000000000000000000000000008152600401610b7390611520565b60405180910390fd5b610b8581610cfe565b50565b610b90610cf6565b73ffffffffffffffffffffffffffffffffffffffff16610bae610841565b73ffffffffffffffffffffffffffffffffffffffff1614610c04576040517f08c379a0000000000000000000000000000000000000000000000000000000008152600401610bfb906115a0565b60405180910390fd5b600073ffffffffffffffffffffffffffffffffffffffff168173ffffffffffffffffffffffffffffffffffffffff161415610c74576040517f08c379a0000000000000000000000000000000000000000000000000000000008152600401610c6b90611500565b60405180910390fd5b80600660006101000a81548173ffffffffffffffffffffffffffffffffffffffff021916908373ffffffffffffffffffffffffffffffffffffffff16021790555050565b600660009054906101000a900473ffffffffffffffffffffffffffffffffffffffff1681565b60046020528060005260406000206000915090505481565b600033905090565b60008060009054906101000a900473ffffffffffffffffffffffffffffffffffffffff169050816000806101000a81548173ffffffffffffffffffffffffffffffffffffffff021916908373ffffffffffffffffffffffffffffffffffffffff1602179055508173ffffffffffffffffffffffffffffffffffffffff168173ffffffffffffffffffffffffffffffffffffffff167f8be0079c531659141344cd1fd0a4f28419497f9722a3daafe3b4186f6b6457e060405160405180910390a35050565b60008183610dd09190611703565b905092915050565b610e5b846323b872dd60e01b858585604051602401610df993929190611471565b604051602081830303815290604052907bffffffffffffffffffffffffffffffffffffffffffffffffffffffff19166020820180517bffffffffffffffffffffffffffffffffffffffffffffffffffffffff8381831617835250505050610e61565b50505050565b6000610ec3826040518060400160405280602081526020017f5361666545524332303a206c6f772d6c6576656c2063616c6c206661696c65648152508573ffffffffffffffffffffffffffffffffffffffff16610f289092919063ffffffff16565b9050600081511115610f235780806020019051810190610ee39190611191565b610f22576040517f08c379a0000000000000000000000000000000000000000000000000000000008152600401610f19906115e0565b60405180910390fd5b5b505050565b6060610f378484600085610f40565b90509392505050565b606082471015610f85576040517f08c379a0000000000000000000000000000000000000000000000000000000008152600401610f7c90611560565b60405180910390fd5b610f8e85611054565b610fcd576040517f08c379a0000000000000000000000000000000000000000000000000000000008152600401610fc4906115c0565b60405180910390fd5b6000808673ffffffffffffffffffffffffffffffffffffffff168587604051610ff6919061143f565b60006040518083038185875af1925050503d8060008114611033576040519150601f19603f3d011682016040523d82523d6000602084013e611038565b606091505b5091509150611048828286611067565b92505050949350505050565b600080823b905060008111915050919050565b60608315611077578290506110c7565b60008351111561108a5782518084602001fd5b816040517f08c379a00000000000000000000000000000000000000000000000000000000081526004016110be91906114de565b60405180910390fd5b9392505050565b6000813590506110dd81611b32565b92915050565b6000813590506110f281611b49565b92915050565b60008151905061110781611b49565b92915050565b60008135905061111c81611b60565b92915050565b60008135905061113181611b77565b92915050565b60006020828403121561114d5761114c61184f565b5b600061115b848285016110ce565b91505092915050565b60006020828403121561117a5761117961184f565b5b6000611188848285016110e3565b91505092915050565b6000602082840312156111a7576111a661184f565b5b60006111b5848285016110f8565b91505092915050565b6000602082840312156111d4576111d361184f565b5b60006111e28482850161110d565b91505092915050565b6000602082840312156112015761120061184f565b5b600061120f84828501611122565b91505092915050565b6112218161175d565b82525050565b6112308161176f565b82525050565b60006112418261167b565b61124b8185611691565b935061125b8185602086016117ed565b80840191505092915050565b611270816117b7565b82525050565b600061128182611686565b61128b818561169c565b935061129b8185602086016117ed565b6112a481611854565b840191505092915050565b60006112bc60298361169c565b91506112c782611865565b604082019050919050565b60006112df60268361169c565b91506112ea826118b4565b604082019050919050565b600061130260268361169c565b915061130d82611903565b604082019050919050565b600061132560268361169c565b915061133082611952565b604082019050919050565b600061134860218361169c565b9150611353826119a1565b604082019050919050565b600061136b60208361169c565b9150611376826119f0565b602082019050919050565b600061138e601d8361169c565b915061139982611a19565b602082019050919050565b60006113b1602a8361169c565b91506113bc82611a42565b604082019050919050565b60006113d4601f8361169c565b91506113df82611a91565b602082019050919050565b60006113f7602e8361169c565b915061140282611aba565b604082019050919050565b600061141a601d8361169c565b915061142582611b09565b602082019050919050565b611439816117ad565b82525050565b600061144b8284611236565b915081905092915050565b600060208201905061146b6000830184611218565b92915050565b60006060820190506114866000830186611218565b6114936020830185611218565b6114a06040830184611430565b949350505050565b60006020820190506114bd6000830184611227565b92915050565b60006020820190506114d86000830184611267565b92915050565b600060208201905081810360008301526114f88184611276565b905092915050565b60006020820190508181036000830152611519816112af565b9050919050565b60006020820190508181036000830152611539816112d2565b9050919050565b60006020820190508181036000830152611559816112f5565b9050919050565b6000602082019050818103600083015261157981611318565b9050919050565b600060208201905081810360008301526115998161133b565b9050919050565b600060208201905081810360008301526115b98161135e565b9050919050565b600060208201905081810360008301526115d981611381565b9050919050565b600060208201905081810360008301526115f9816113a4565b9050919050565b60006020820190508181036000830152611619816113c7565b9050919050565b60006020820190508181036000830152611639816113ea565b9050919050565b600060208201905081810360008301526116598161140d565b9050919050565b60006020820190506116756000830184611430565b92915050565b600081519050919050565b600081519050919050565b600081905092915050565b600082825260208201905092915050565b60006116b8826117ad565b91506116c3836117ad565b9250827fffffffffffffffffffffffffffffffffffffffffffffffffffffffffffffffff038211156116f8576116f7611820565b5b828201905092915050565b600061170e826117ad565b9150611719836117ad565b9250817fffffffffffffffffffffffffffffffffffffffffffffffffffffffffffffffff048311821515161561175257611751611820565b5b828202905092915050565b60006117688261178d565b9050919050565b60008115159050919050565b60006117868261175d565b9050919050565b600073ffffffffffffffffffffffffffffffffffffffff82169050919050565b6000819050919050565b60006117c2826117c9565b9050919050565b60006117d4826117db565b9050919050565b60006117e68261178d565b9050919050565b60005b8381101561180b5780820151818401526020810190506117f0565b8381111561181a576000848401525b50505050565b7f4e487b7100000000000000000000000000000000000000000000000000000000600052601160045260246000fd5b600080fd5b6000601f19601f8301169050919050565b7f57616c6c657420616464726573732073686f756c64206e6f74206265207a657260008201527f6f20616464726573730000000000000000000000000000000000000000000000602082015250565b7f4f776e61626c653a206e6577206f776e657220697320746865207a65726f206160008201527f6464726573730000000000000000000000000000000000000000000000000000602082015250565b7f55706461746553776170526174653a2052617465206973206c6573732074686160008201527f6e205a65726f0000000000000000000000000000000000000000000000000000602082015250565b7f416464726573733a20696e73756666696369656e742062616c616e636520666f60008201527f722063616c6c0000000000000000000000000000000000000000000000000000602082015250565b7f50726573616c653a2050726573616c65206973206e6f7420617661696c61626c60008201527f6500000000000000000000000000000000000000000000000000000000000000602082015250565b7f4f776e61626c653a2063616c6c6572206973206e6f7420746865206f776e6572600082015250565b7f416464726573733a2063616c6c20746f206e6f6e2d636f6e7472616374000000600082015250565b7f5361666545524332303a204552433230206f7065726174696f6e20646964206e60008201527f6f74207375636365656400000000000000000000000000000000000000000000602082015250565b7f5265656e7472616e637947756172643a207265656e7472616e742063616c6c00600082015250565b7f4f6c64566764546f6b656e20616464726573732073686f756c64206e6f74206260008201527f65207a65726f2061646472657373000000000000000000000000000000000000602082015250565b7f4255534420416d6f756e74206973206c657373207468616e207a65726f000000600082015250565b611b3b8161175d565b8114611b4657600080fd5b50565b611b528161176f565b8114611b5d57600080fd5b50565b611b698161177b565b8114611b7457600080fd5b50565b611b80816117ad565b8114611b8b57600080fd5b5056fea2646970667358221220d4dd58790407fdcd25bca59747242d92fa4bc23e054ea5787bee4f37c36123b264736f6c63430008070033",
  "linkReferences": {},
  "deployedLinkReferences": {}
}